:020000040800F2
:10000000FFFF0120411200089D100008A910000800
:10001000AF100008B5100008BB1000080000000079
:10002000000000000000000000000000C1100008F7
:10003000CD10000800000000D9100008E5100008ED
:100040008912000889120008891200088912000824
:100050008912000889120008891200088912000814
:100060008912000889120008891200088912000804
:1000700089120008891200088912000889120008F4
:1000800089120008891200088912000889120008E4
:1000900089120008891200088912000889120008D4
:1000A00089120008891200088912000889120008C4
:1000B00089120008891200088912000889120008B4
:1000C00089120008891200088912000889120008A4
:1000D0008912000889120008891200088912000894
:1000E0008912000889120008891200088912000884
:1000F0008912000889120008891200088912000874
:100100008912000889120008891200088912000863
:100110008912000889120008891200088912000853
:100120008912000889120008891200088912000843
:100130008912000889120008891200088912000833
:100140008912000889120008891200088912000823
:100150008912000889120008891200088912000813
:100160008912000889120008891200088912000803
:1001700089120008891200088912000889120008F3
:08018000891200088912000831
:1001880010B5054C237833B9044B13B10448AFF3C9
:1001980000800123237010BD6800002000000000CB
:1001A800A41F000808B5034B1BB103490348AFF36C
:1001B800008008BD000000006C000020A41F00089B
:1001C80003685A004CBF43F0004323F0004318442F
:1001D800704700BF2DE9F84329B34F1E0446154662
:1001E8003E464FF0000808EB060101EBD1714910BB
:1001F80004EBC1094846FFF7E3FF0346C80008308F
:100208008F42204409D0AB4209D8FFF7D9FF013803
:10021800A8420AD201F10108E5E7AB4205D98845B1
:1002280001D04E1EDFE74FF000094846BDE8F883CD
:10023800012807D0022807D0044B00280CBF184615
:1002480000207047024870470248704711090008AB
:10025800150900081909000830B5234B83B0044676
:100268008D1E3BB301A92846AFF30080E8B1019980
:100278002A46FFF7AFFF0146B8B1FFF7A1FF4B6869
:10028800A064012B2CD0002B01F1040024DBFFF724
:1002980097FF0023C4E913030368002B11DBFFF762
:1002A8008FFF2061002003B030BD002309202361A7
:1002B80003B030BD0D4B0E49C91AC910184601913B
:1002C800D6E7C3F30360FFF7B3FF0028206114BF2C
:1002D8000020092003B030BD0123C4E91303DBE784
:1002E800002323610520DEE7000000007C200008D1
:1002F8004C2100080368DA0710B5044606D49B07AA
:1003080000F1480009D500F05BFC2368590709D5BE
:100318001A070ED5DB0613D510BD00F049FC23687B
:100328005907F5D404F1D00000F052FC23681A07ED
:10033800F0D404F5A87000F053FC2368DB06EBD476
:1003480004F5E870BDE8104000F08EBC0920704745
:100358000346006800B11844704700BF704700BFEB
:1003680070B504460E46316C2046FFF775FF05460A
:1003780088B9326C62612369324621460120984768
:100388000828F0D0072806D12846316CFFF7E6FF89
:10039800301D00F001FC01F064FD00BF2DE9F047BD
:1003A8000D1DD0F80C80D0F81890074614460FCDD4
:1003B800ADF5727D0DF10C0CACE80F000FCDACE87B
:1003C8000F000FCDACE80F0095E80F0002AE4FF01C
:1003D800000E8CE80F00C6F800E020E0336C7B616B
:1003E8004FF4F07231467AA801F074FD3B697AAA9D
:1003F800394650469847889B73642146CDE9006981
:1004080005463B463A460120C0470446E0B94FF44A
:10041800F0727AA9304601F05DFD082D1AD1316CD1
:100428003846FFF719FF09345FFA84FA05460028B1
:10043800D4D0B36B73643A46CDE900693B464AF0C1
:1004480010010120C04700B1092528460DF5727D2D
:10045800BDE8F087072DF7D12046316CFFF77EFF06
:1004680003A800F099FB00BF406C7047F0B5CB6B58
:100478000B6401F1040C0E460546BCE80F00F9B008
:1004880001AC0FC4BCE80F000FC4BCE80F000FC4D8
:100498009CE80F004FF0FF3784E80F00009706E054
:1004A8002B696A46294698470828044608D11099B6
:1004B8002846FFF7D1FE0028F2D0092079B0F0BD18
:1004C8006846FFF717FF062CF7D131462846FFF795
:1004D80047FF00BFC160D96B8261196400221946C9
:1004E8005CE700BF70B5C66843690B64AEB90369C1
:1004F8000A4604460D46014602209847072805D0BB
:1005080008280FD129462046FFF72AFF3046296CD4
:10051800FFF724FF281D00F03FFB0122FFF73EFFF5
:1005280001F09FFC01F09DFCC2681AB1CA6B0A6415
:10053800002233E79AE700BF704700BF836801468F
:100548000BB1012018477047012912D009D873B997
:100558000F2A0CD800EB820218465368009A1360E1
:1005680070470339012994BF0120022070470220F7
:1005780070470846704700BF00B585B00A4600239B
:1005880003A900911946FFF7DFFF039805B05DF84E
:1005980004FB00BF012912D009D873B90F2A0CD85F
:1005A80000EB8200009A12684260184670470339CF
:1005B800012994BF01200220704702207047084695
:1005C800704700BF10B584B0002303AC03920094B9
:1005D8000A461946FFF7DEFF04B010BD70B5D36BAD
:1005E800136402F1040C05460C46BCE80F00ADF597
:1005F8000E7D0DF15C0EAEE80F00BCE80F00AEE812
:100608000F00BCE80F00AEE80F009CE80F004FF0A9
:10061800FF368EE80F00169610E0FFF7D3FF21464D
:1006280016A8A847034616AA6946082083B9049B5A
:100638009847052806460CD0092809D02699684607
:10064800FFF70AFE03466A460C2116A8002BE4D0E1
:10065800092616A8FFF74EFE30460DF50E7D70BD33
:100668002DE9F04FCC6C89B01E4654F8043B069433
:100678000D46174600F00308002E79D01A0C1B040B
:1006880005938DF81D200223D2B204EB82048DF865
:100698001C302B6DB8F1020F08BFAC6B13F00103CF
:1006A8000CD005A9384600F079FB18B9082009B024
:1006B800BDE8F08F092009B0BDE8F08FD4F800A09C
:1006C800BAF1000FEDD0019300F008030293022E57
:1006D8004AD0B4F800A0B4F802900434AB6C29F006
:1006E800010B0F2138469B44FFF746FF834539D855
:1006F8002AF001039B44834594BF002001204FEA60
:10070800490303F002030AF0010A43EA0A03012B32
:1007180049D0022B32D0002BCCD1B8F1000F02D037
:10072800002840F0CD800434D4F800A0BAF1000FBE
:10073800CDD105A9384600F031FB0028BAD1019B7C
:10074800002BB3D00F213846FFF716FF0E210246C3
:100758003846FFF737FF38466A4A0F21FFF732FF5E
:100768000720A8E70020CAE7D4F804900834B5E7C2
:100778001B0205930323ADF81C308AE7236823F096
:10078800004BB8F1000F45D128B1029A002A5CD07D
:10079800BBF1000F74D0002B00DA04340BF1010B0D
:1007A80004EB8B04C0E7B8F1000F19D1B0B163684E
:1007B8002268991C4FEAD2723FF47CAF05F15801C8
:1007C8000133049100F09080201DFFF7C1FD04ABB8
:1007D80001462846AFF3008000285BD10834A3E720
:1007E8000D213846D5F82090FFF7C6FE8145F5D192
:1007F800AB6A9C42F2D12046FFF7E2FC0F21024689
:100808003846FFF7DFFE38462A460021FFF7DAFEB2
:10081800072050E70D213846D5F82090FFF7ACFEA9
:10082800814501D02368B6E7AB6A9C42FAD104231C
:100838000022C5E90B23E318C5F828B06B632368C9
:10084800002B59DB01230193A8E705F15803CDF8E4
:100858000C8004F1040AB04691461E460EE050464C
:100868000496FFF775FD0022014604AB284609F1FE
:1008780001090AF1040AAFF30080E0B9D945EED1C5
:100888000D213846FFF778FE049BAC62C5E90803E2
:10089800062010E781460D213846FFF76DFEB9F1B5
:1008A800020F286225D12B46049A43F82C2F6B623D
:1008B800AC620620FFE646462368DDF80C806AE74E
:1008C8002046FFF77DFC04340246AC6328461446F4
:1008D800AFF3008000283FF4EDAE384622460F21E2
:1008E800FFF770FE0720E6E60D213846FFF744FEC5
:1008F8002862049B6B62DBE70BF1010004EB8000CC
:100908007AE700BF000000000023A9E60123A7E65C
:100918000223A5E62DE9F0430646C3B015461C465A
:10092800042900F2BF80DFE801F09E57BD2D0300C7
:10093800002C40F0B780102A00F2B4800368D80673
:1009480000F1F98020AF384600F098F9B46B3946C9
:1009580000234FF0010C0CFA03F22A42204603F15F
:10096800010303D050F8042B0A600446042B01F15C
:100978000401F0D13846B46300F076F9002043B0A2
:10098800BDE8F083032C40F08D8094B204EB124351
:10099800102B4FEA124500F2858003681F0700F10B
:1009A800D28020AF384600F03DF9B26B07EBC501A5
:1009B80054B10B46D01A01EBC401E4001D5843F8AA
:1009C800045B8B42FAD122443846B26300F008F93E
:1009D800002043B0BDE8F083012C4FEA124895B2DD
:1009E8005CD0052C5ED108EB0509B9F1200F59D868
:1009F800B8F10F0F79D9A946002D40F08A80B36B62
:100A08006DB320AF4FF0000907EBC807043F03EBB5
:100A1800C50553F8041B47F8041FAB42F9D1B9F1D7
:100A2800000F0FD06F464146102938BF102107EB41
:100A3800C101843903EBC90553F8040B41F8040FCD
:100A4800AB42F9D1012C00F08680B8F10F0FB563E5
:100A580047D9B9F1000F02D0684600F0B9F8002074
:100A680043B0BDE8F083ECB9806B23461FFA82FCE3
:100A78000124371D04FA03F212EA0C0F014604D0D0
:100A880051F8042B47F8232008460133102BF1D1E5
:100A980015F40055E3D1B063284604E008EB0503DC
:100AA800102B03D9022043B0BDE8F083B8F10F0F33
:100AB800F8D83368DA0706D5304623F0030340F840
:100AC800483B00F079F820AF384600F075F8B36B72
:100AD800002D97D11D460435B563384600F068F8F7
:100AE800BDE720A800F06CF8B3E7B9F1100F40D9C2
:100AF800A9F110093368D90708D523F00103304656
:100B080043F0020340F8483B00F05EF8B9F1000FEB
:100B180032D033685A0720D4B8F10F0F25D96F4661
:100B28003846C8F1100500F057F8002DB36B7FF771
:100B38007AAF20AF68E723F01003336006F5E8705A
:100B480000F09CF8FEE623F00803036000F5A870A7
:100B580000F068F825E720AFBDE7304623F004032E
:100B680040F8D03B00F038F8D6E720A800F02CF881
:100B7800D5E74FF00009BDE7B8F10F0F3FF63FAFDB
:100B880020AF384600F020F8B36B002D7FF43AAF61
:100B9800384600F015F862E700F1340191E83800B2
:100BA8009C46A6464CF8045D90E8FF0FE54600BD5C
:100BB80090EC210B704700BF80EC210B704700BF01
:100BC80090EC200B704700BF80EC200B704700BFF3
:100BD800D0EC200B704700BFC0EC200B704700BF63
:100BE800F0EC0201F0EC0211F0EC0221F0EC023121
:100BF800F0EC0241F0EC0251F0EC0261F0EC027111
:100C0800F0EC0281F0EC0291F0EC02A1F0EC02B100
:100C1800F0EC02C1F0EC02D1F0EC02E1F0EC02F1F0
:100C2800704700BFE0EC0201E0EC0211E0EC0221A9
:100C3800E0EC0231E0EC0241E0EC0251E0EC026150
:100C4800E0EC0271E0EC0281E0EC0291E0EC02A140
:100C5800E0EC02B1E0EC02C1E0EC02D1E0EC02E130
:100C6800E0EC02F1704700BFB0FC0181B0FC0191DB
:100C7800B0FC01A1B0FC01B1704700BFA0FC01812C
:100C8800A0FC0191A0FC01A1A0FC01B1704700BF2C
:100C9800EC4600B52DE900502DE9FF1F4FF0000389
:100CA8002DE90C0001A9FFF7E1FBDDF840E012B0E7
:100CB800704700BFEC4600B52DE900502DE9FF1F35
:100CC8004FF000032DE90C0001A9FFF70BFCDDF83C
:100CD80040E012B0704700BFEC4600B52DE9005067
:100CE8002DE9FF1F4FF000032DE90C0001A9FFF7C4
:100CF8001BFCDDF840E012B0704700BFEC4600B5C1
:100D08002DE900502DE9FF1F4FF000032DE90C00DD
:100D180001ABFFF7DFFBDDF840E012B0704700BF22
:100D2800EC4600B52DE900502DE9FF1F4FF00003F8
:100D38002DE90C0001AAFFF751FCDDF840E012B0E4
:100D4800704700BF027A03467AB9427AA2B1416875
:100D5800013A10B44272086803220C1D1A7202028A
:100D68005C60000E10BC1A6070470068013A1A7285
:100D780002021A60000E7047B020704700B585B0B7
:100D8800002303AA009219460C22FFF7DDFB039803
:100D980005B05DF804FB00BFF0E700BF2DE9F043A4
:100DA800054685B00E464FF000083046FFF7CAFFEB
:100DB800B028044600F0BA80070620D500F0F003FA
:100DC800802B4DD0902B36D0A02B60D0B02B74D078
:100DD800C02B00F08B8000F0F803D02B0BD100F073
:100DE80007020132052342F4002201212846FFF7B9
:100DF80091FD0028D9D0092005B0BDE8F083830013
:100E0800DBB21F1D0DF10C0900231946CDF8009027
:100E18000D222846FFF798FB039BCDF8009060064B
:100E28004CBFDF1BFF1800230D22194628460397E5
:100E3800FFF7B0FBB9E700F00D030D2BDBD003AFD4
:100E4800002300F00F02194600972846FFF77CFBA5
:100E5800002300970D2219462846FFF79BFBA4E7BD
:100E68003046FFF76FFF24022043B0F5004FC2D091
:100E780004010023A2B219462846FFF74BFD0028BB
:100E8800B9D114F4004F18BF4FF001088DE7C243E1
:100E980002F007034FF47F621A41010702F47F62F0
:100EA8004FF0000348BF42F4804219462846FFF736
:100EB80031FD00283FF479AF9DE7B1283BD0B22837
:100EC80000F09380B32841D000F0FC03B42B92D0FB
:100ED80000F007020132012342F400221946284695
:100EE800FFF718FD00283FF460AF84E7C6284AD012
:100EF800C72854D000F0F803C02B63D0C82868D0A6
:100F0800C9287FF478AF3046FFF71CFF020300F0D2
:100F18000F0002F470220130024301210523284604
:100F2800FFF7F8FC00283FF440AF64E7B8F1000F82
:100F380018D0002060E73046FFF704FF024600287B
:100F48003FF459AF10F0F003C8D054E73046FFF72C
:100F5800F9FE020300F00F03013302F470221A4372
:100F68000123BBE703AC43460E22414600942846C2
:100F7800FFF7EAFA009443460F2241462846FFF756
:100F880009FB404638E73046FFF7DCFE020300F075
:100F98000F03013302F470221A4303239EE73046FD
:100FA800FFF7D0FE024600283FF425AF10F0F0030B
:100FB8007FF421AF04212846FFF7ACFC00283FF45A
:100FC800F4AE18E700F00F020132032342F42022A6
:100FD80084E73046FFF7B6FE00F0F00200F00F039A
:100FE8001032013343EA023297E700230DF10C096E
:100FF8000D221946CDF800902846FFF7A5FA30468D
:10100800FFF7A0FE02064FF002040CD5039B00F088
:101018007F00A040184403903046FFF793FE030674
:1010280004F10704F2D4039BCDF8009000F07F028E
:10103800A24003F501731A440023039219460D22B6
:101048002846FFF7A7FAB0E610B5C26C536884B01B
:101058004FF0030C08321C0208461B0E01A901942C
:1010680002928DF80CC08DF80D30FFF797FE04B092
:1010780010BD00BF08B5FFF78FFE806C08BD00BF2C
:1010880008B5FFF789FEC06CC379023300EB830013
:1010980008BD00BF80B400AF00BFBD4680BC70472C
:1010A80080B400AFFEE780B400AFFEE780B400AFC5
:1010B800FEE780B400AFFEE780B400AF00BFBD46D6
:1010C80080BC704780B400AF00BFBD4680BC70478D
:1010D80080B400AF00BFBD4680BC704780B400AF8D
:1010E80000BFBD4680BC704780B500AF124B1B687F
:1010F800114A43F0010313600F4B00229A600E4B14
:101108001B680D4A23F0847323F4803313600A4B61
:101118000A4A5A60084B1B68074A23F48023136065
:10112800054B0022DA6000F00DF8054B4FF0006225
:101138009A6000BF80BD00BF003802401030002414
:1011480000ED00E080B483B000AF00237B60002393
:101158003B60354B1B68344A43F480331360324B91
:101168001B6803F400333B607B6801337B603B689A
:10117800002B03D17B68B3F5A04FF0D12A4B1B6835
:1011880003F40033002B02D001233B6001E000236D
:101198003B603B68012B42D1234B1B6C224A43F036
:1011A80080531364214B1B68204A43F44043136067
:1011B8001D4B1D4A9B6893601B4B9B681A4A43F45E
:1011C80000439360184B9B68174A43F4A0539360FD
:1011D800154B174A5A60144B1B68134A43F0807327
:1011E800136000BF104B1B6803F00073002BF9D08D
:1011F800104B40F205721A600B4B9B680A4A23F0A9
:1012080003039360084B9B68074A43F0020393600B
:1012180000BF054B9B6803F00C03082BF9D100BFF6
:101228000C37BD4680BC7047003802400070004053
:1012380008544007003C0240002103E00B4B5B5878
:10124800435004310A480B4B42189A42F6D30A4AD3
:1012580002E0002342F8043B084B9A42F9D3FFF717
:1012680043FF00F013FE00F04DFD704758210008C1
:10127800000000206800002068000020AC04002066
:10128800FEE780B483B000AF78607B6818460C37FF
:10129800BD4680BC704780B483B000AF78607B687F
:1012A80018460C37BD4680BC7047000080B483B038
:1012B80000AF7860474B1B68464A43F0050313604C
:1012C800444B1B68434A43F480731360424B1B68CA
:1012D800414A43F0010313603F4B1B6803F00203CC
:1012E800002B0CBF01230023DBB2002B00D0F3E757
:1012F800394B394A5B685360374B5B68364A23F091
:101308003F035360344B5B68334A43F01003536028
:10131800314B5B68304A23F4FF4323F040035360AA
:101328002D4B5B682C4A43F4806353602A4B5B68FF
:10133800294A43F480535360274B5B68264A43F499
:1013480080435360244B5B68234A23F44033536043
:10135800214B9B68204A23F4E05393601E4B9B6803
:101368001D4A43F4A05393601B4B9B681A4A23F40D
:1013780060439360184B9B68174A43F4004393609B
:10138800154B1B68144A43F080731360124B1B689B
:1013980003F00073002B0CBF01230023DBB2002BEA
:1013A80000D0F3E70C4B9B680B4A43F002039360B1
:1013B800094B9B6803F00803002B0CBF0123002393
:1013C800DBB2002B00D0F3E700BF0C37BD4680BC72
:1013D800704700BF003C02400038024080B485B02E
:1013E80000AFF860B9601346FB71FB68BA681A6011
:1013F800FB68FA791A71FB6801225A71FB680122AD
:101408009A71FB680022DA71FB6800221A72BB68C5
:101418002F4A934205D12F4B1B6B2E4A43F00103F1
:101428001363BB682C4A934205D12A4B1B6B294A8C
:1014380043F002031363BB68284A934205D1254B46
:101448001B6B244A43F004031363BB68244A93428A
:1014580005D1204B1B6B1F4A43F008031363BB687D
:10146800204A934205D11B4B1B6B1A4A43F01003C9
:101478001363BB681C4A934205D1164B1B6B154A74
:1014880043F020031363BB68184A934205D1114BFC
:101498001B6B104A43F040031363BB68144A934222
:1014A80005D10C4B1B6B0B4A43F080031363BB68DD
:1014B800104A934205D1074B1B6B064A43F48073CD
:1014C8001363FB6818461437BD4680BC704700BFDD
:1014D80000000240003802400004024000080240B8
:1014E800000C0240001002400014024000180240A4
:1014F800001C02400020024080B483B000AF786036
:101508000B46FB707B68FA785A71FB78002B1FD169
:101518007B681B681A687B681B795B00012101FAEC
:1015280003F3DB4319467B681B680A401A607B6833
:101538001B681A687B681B795B000133012101FA7B
:1015480003F3DB4319467B681B680A401A6020E0F6
:10155800FB78012B1DD17B681B681A687B681B7997
:101568005B00012101FA03F319467B681B680A43F3
:101578001A607B681B681A687B681B795B000133FB
:10158800012101FA03F3DB4319467B681B680A4013
:101598001A6000BF0C37BD4680BC704780B483B06A
:1015A80000AF78600B46FB707B68FA781A72FB789C
:1015B800002B1FD17B681B68DA687B681B795B008E
:1015C800012101FA03F3DB4319467B681B680A40D3
:1015D800DA607B681B68DA687B681B795B0001331B
:1015E800012101FA03F3DB4319467B681B680A40B3
:1015F800DA6042E0FB78012B1ED17B681B68DA6851
:101608007B681B795B00012101FA03F319467B68AB
:101618001B680A43DA607B681B68DA687B681B7999
:101628005B000133012101FA03F3DB4319467B68B0
:101638001B680A40DA6020E0FB78022B1DD17B682A
:101648001B68DA687B681B795B00012101FA03F3E8
:10165800DB4319467B681B680A40DA607B681B68B5
:10166800DA687B681B795B000133012101FA03F317
:1016780019467B681B680A43DA6000BF0C37BD4611
:1016880080BC704780B483B000AF78607B681B680B
:101698001B697A681279114601228A401340002B8F
:1016A80014BF01230023DBB2002B01D0012300E08B
:1016B800002318460C37BD4680BC704780B483B001
:1016C80000AF78607B6818460C37BD4680BC704711
:1016D80080B485B000AFF860B9607A60FB70FB68D1
:1016E800BA681A60FB687A685A60FB68FA781A72F6
:1016F800FB683A7E5A72FB68FA69DA60FB68002276
:101708001A61FB6818461437BD4680BC7047000054
:1017180080B485B000AF78607B681B68934A9342B9
:1017280005D1934B5B6C924A43F0100353647B687A
:101738001B68904A934205D18D4B5B6C8C4A43F0F1
:10174800200353647B681B688B4A934205D1884BFE
:101758001B6C874A43F4003313647B681B68874A11
:10176800934205D1824B1B6C814A43F48023136456
:101778007B685B68824A934205D17D4B1B6B7C4A30
:1017880043F0010313637B685B687E4A934205D18B
:10179800774B1B6B764A43F0020313637B685B68E5
:1017A800794A934205D1724B1B6B714A43F004038B
:1017B80013637B685B68754A934205D16C4B1B6B5E
:1017C8006B4A43F0080313637B685B68704A934273
:1017D80005D1674B1B6B664A43F0100313637B68A4
:1017E8005B686C4A934205D1614B1B6B604A43F0BE
:1017F800200313637B685B68674A934205D15C4B9F
:101808001B6B5B4A43F0400313637B685B68634A66
:10181800934205D1564B1B6B554A43F08003136323
:101828007B685B685E4A934205D1514B1B6B504AFB
:1018380043F4807313637B685B681A687B685B7A20
:101848005B00012101FA03F3DB4319467B685B68FF
:101858000A401A607B685B681A687B685B7A5B0081
:101868000133012101FA03F319467B685B680A43D7
:101878001A607B685B689A687B685B7A5B00012109
:1018880001FA03F319467B685B680A439A607B6830
:101898005B689A687B685B7A5B000133012101FA17
:1018A80003F319467B685B680A439A607B685B6848
:1018B800DA687B685B7A5B00012101FA03F3194659
:1018C8007B685B680A43DA607B685B68DA687B6818
:1018D8005B7A5B000133012101FA03F3DB4319460C
:1018E8007B685B680A40DA607B685B7A072B59D8AB
:1018F8007B685B681A6A7B685B7A9B00012101FA46
:1019080003F319467B685B680A431A627B685B6865
:101918001A6A7B685B7A9B000133012101FA03F3A1
:1019280019467B685B680A431A627B685B681A6AB7
:101938007B685B7A9B000233012101FA03F31946A5
:101948007B685B680A431A627B685B681A6A7B6813
:101958005B7A9B000333012101FA03F3DB43194649
:101968007B685B680A401A625CE000BF00100140B7
:101978000038024000140140004400400048004084
:10198800000002400004024000080240000C02402F
:10199800001002400014024000180240001C0240DF
:1019A800002002407B685B685A6A7B685B7A083B68
:1019B8009B00012101FA03F319467B685B680A431F
:1019C8005A627B685B685A6A7B685B7A083B9B0053
:1019D8000133012101FA03F319467B685B680A4366
:1019E8005A627B685B685A6A7B685B7A083B9B0033
:1019F8000233012101FA03F319467B685B680A4345
:101A08005A627B685B685A6A7B685B7A083B9B0012
:101A18000333012101FA03F3DB4319467B685B6852
:101A28000A405A627B685B681A687B681B7A5B00AD
:101A3800012101FA03F3DB4319467B685B680A401E
:101A48001A607B685B681A687B681B7A5B000133E5
:101A5800012101FA03F319467B685B680A431A609F
:101A68007B685B68DA687B681B7A5B00012101FA96
:101A780003F319467B685B680A43DA607B685B6836
:101A8800DA687B681B7A5B000133012101FA03F3F2
:101A9800DB4319467B685B680A40DA607B681B7A1F
:101AA800072B3CD87B685B681A6A7B681B7A9B00AB
:101AB800012101FA03F319467B685B680A431A623D
:101AC8007B685B681A6A7B681B7A9B00013301217B
:101AD80001FA03F319467B685B680A431A627B685C
:101AE8005B681A6A7B681B7A9B000233012101FA42
:101AF80003F319467B685B680A431A627B685B6874
:101B08001A6A7B681B7A9B000333012101FA03F3ED
:101B1800DB4319467B685B680A401A623FE07B68D2
:101B28005B685A6A7B681B7A083B9B00012101FAB3
:101B380003F319467B685B680A435A627B685B68F3
:101B48005A6A7B681B7A083B9B000133012101FA22
:101B580003F319467B685B680A435A627B685B68D3
:101B68005A6A7B681B7A083B9B000233012101FA01
:101B780003F319467B685B680A435A627B685B68B3
:101B88005A6A7B681B7A083B9B000333012101FAE0
:101B980003F3DB4319467B685B680A405A627B683B
:101BA8001B68324A934204D07B681B68304A9342D0
:101BB80017D17B68DB681A462E4BB3FBF2F3BB8167
:101BC800BB891B099BB21B011AB2B7F90C3003F091
:101BD8000F031BB213431AB27B681B6892B21A81B7
:101BE80016E07B68DB681A46234BB3FBF2F3FB81F4
:101BF800FB891B099BB21B011AB2B7F90E3003F01F
:101C08000F031BB213431AB27B681B6892B21A8186
:101C18007B681B689B899AB27B681B6842F0080244
:101C280092B29A817B681B689B899AB27B681B6811
:101C380042F0040292B29A817B681B689B899AB22F
:101C48007B681B6842F4005292B29A817B681B68D9
:101C58009B899AB27B681B6842F0200292B29A81F3
:101C680000BF1437BD4680BC704700BF001001405C
:101C78000014014000BD010580DE800280B483B0FD
:101C880000AF78600B46FB707B681B681B889BB2B3
:101C980003F08003002B0CBF01230023DBB2002BD1
:101CA80000D0F1E77B681B68FA7892B29A8000BF8F
:101CB8000C37BD4680BC704780B582B000AF7860F5
:101CC80039603B681B78002B09D03B681B781946A4
:101CD8007868FFF7D3FF3B6801333B60F1E70A21DF
:101CE8007868FFF7CBFF00BF0837BD4680BD80B4DA
:101CF80083B000AF78607B6818460C37BD4680BC5F
:101D08007047000080B500AF1448FFF7CFFA1448B9
:101D1800FFF7FEFC13491248FFF7CEFF124910489F
:101D2800FFF7CAFF00211148FFF7E6FB01210F4822
:101D3800FFF734FC0D48FFF7A5FC0346002B06D03F
:101D48000B490748FFF7B8FF00F032F805E00949EA
:101D58000348FFF7B1FF00F00FF8FEE7840000200A
:101D680088000020BC1F0008E41F00089C04002015
:101D7800002000082C20000880B584B000AF0A4B72
:101D88001B68FB60FB683B603B6883F3088800BF07
:101D9800064B1B68BB60BB687B607B68984700BFCD
:101DA8001037BD4680BD00BF00C0000804C0000851
:101DB80080B400AF00BFBD4680BC704780B584B01A
:101DC80002AF786039607B68012B26D13B684FF6FB
:101DD800FF72934221D11348FFF753FA124A13496D
:101DE800104800F039F84FF416530193022300937A
:101DF80003230F4A0F491048FFF76AFC0A4A0F49A4
:101E08000D4800F029F8002209490D48FFF7E6FAC5
:101E1800054A0C490A4800F01FF800BF0837BD46BC
:101E280080BD00BF84000020000000209F12000831
:101E3800000002400044004088000020F71C000811
:101E48009C040020C516000880B500AF4FF6FF714E
:101E58000120FFF7B3FF80BD0B460146184600F08E
:101E680007B808B5062000F06BF8012000F094F8D8
:101E780010B504460448134620B10A4602202146FC
:101E8800AFF3008010BD00BF0000000070B50D4D1D
:101E98000D4C641BA4100026A64209D10B4D0C4C16
:101EA80000F07CF8641BA4100026A64205D170BD82
:101EB80055F8043B98470136EEE755F8043B984738
:101EC8000136F2E74C2100084C2100084C2100089B
:101ED800542100080A44914200F1FF3300D17047B1
:101EE80010B511F8014B03F8014F9142F9D110BD1B
:101EF8001F2938B504460D4604D9162303604FF050
:101F0800FF3038BD426C12B152F821304BB920462F
:101F180000F030F82A4601462046BDE8384000F077
:101F280017B8012B0AD0591C03D1162303600120CE
:101F3800E7E7002442F82540284698470020E0E7D4
:101F4800024B01461868FFF7D3BF00BF040000200A
:101F580038B5074D00230446084611462B6000F0AB
:101F680013F8431C02D12B6803B1236038BD00BFAE
:101F7800A804002000F000B8024B58221A604FF065
:101F8800FF307047A8040020024B58221A604FF017
:101F9800FF307047A8040020FEE700BFF8B500BF77
:101FA800F8BC08BC9E467047F8B500BFF8BC08BC32
:041FB8009E4670478A
:101FBC000D0A2A2A2A2A2A2A5374617274696E67B6
:101FCC0020426F6F742054616C6B2A2A2A2A2A2AA9
:101FDC002A2A2A0D0A0000004275696C7420427985
:101FEC003A204A61636B204D634C65616E730D0A38
:101FFC00000000005B426F6F746C6F616465725D12
:10200C00202D20506572666F726D696E672046696F
:10201C00726D77617265205570646174650D0A008C
:10202C005B426F6F746C6F616465725D202D204A2A
:10203C00756D70696E6720746F20757365722061A1
:0C204C0070706C69636174696F6E000055
:1020580003970181B0B008840000000008B1018135
:10206800B0B000840000000008B10181B0B0008465
:042078000000000064
:10207C004CE1FF7F01000000DCE1FF7FB0A9028092
:10208C0070E2FF7FB0B0A880C0E2FF7F01000000CB
:10209C00CCE2FF7FB0B0AA8000E3FF7FAE71B280CC
:1020AC00C4E3FF7F01000000C0E3FF7FAB3F38803B
:1020BC0020E4FF7F0100000028E4FF7FB0B0AA807D
:1020CC0064E4FF7F0100000010E5FF7FAA0DB280E1
:1020DC008CE5FF7FB0AF08802CE8FF7F010000008B
:1020EC0030E8FF7FAD3F0280ACEAFF7F01000000CB
:1020FC0088ECFF7F008404809CECFF7F01000000D3
:10210C0098ECFF7FB0AD04803CEFFF7FB0A803805C
:10211C0060EFFF7F44FFFF7F64EFFF7F48FFFF7F8F
:10212C0070EFFF7F01000000D8FBFF7F08849780D1
:10213C0044FCFF7F18FFFF7F74FCFF7F0100000051
:08214C00AD010008511E00085E
:0421540089010008F5
:10215800000000000800002000000000000000004F
:102168000000000000000000000000000000000067
:102178000000000000000000000000000000000057
:102188000000000000000000000000000000000047
:102198000000000000000000000000000000000037
:1021A8000000000000000000000000000000000027
:0821B80000000000000000001F
:04000005080012419C
:00000001FF
